S015000046696E616C2050726F6A6563742E737265632E
S11300000C942A000C9447000C9408010C944700AB
S11300100C9447000C9447000C9447000C94470040
S11300200C9447000C9447000C94BB050C94920567
S11300300C9447000C9481000C9447000C944700E6
S11300400C9447000C9447000C9447000C94470010
S11300500C94470011241FBECFE5D8E0DEBFCDBF0E
S113006011E0A0E6B0E0EEE5FCE002C005900D92E0
S1130070AC30B107D9F721E0ACE0B1E001C01D928A
S1130080AF30B207E1F70E9418030C942D060C94CC
S1130090000040E060E081E60E94370341E060E058
S11300A082E60E94370341E061E082E60E94370362
S11300B041E062E082E60E94370341E064E082E6C8
S11300C00E9437030E941F030E94170261E082E02E
S11300D00E940A0540E063E084E60E94370380E062
S11300E00E94EE040E946E010E944C010E94D804FA
S11300F00E94DE0480E895E20E94E4050E94F20575
S113010008951F920F920FB60F9211248F938CB102
S113011080930C018F910F900FBE0F901F90189534
S11301200E94AA0282E890E00E946E0287EA91E6A9
S11301300197F1F700C0000004C00E94A001809361
S11301406000409160004D33C1F760EA80E00E9496
S11301504F010E94AA0280E990E00E946E0287EAA1
S113016091E60197F1F700C0000004C00E94A001CD
S113017080936100409161004D33C1F760EA81E0F2
S11301800E944F0108950E94AA0261E082E00E9449
S113019081028EE990E00E946E0268E270E080E0E5
S11301A090E00E94B40262E082E00E9481028AEA46
S11301B090E00E946E0264E170E080E090E00E94B2
S11301C0B40287EA91E60197F1F700C000000E94AB
S11301D0900008950E94AA0261E081E00E948102D9
S11301E086EB90E00E946E0262E081E00E94810250
S11301F086EC90E00E946E022FE78AE196E021509F
S113020080409040E1F700C000000E94C3000895C0
S11302101F920F920FB60F9211242F933F934F9377
S11302205F936F937F938F939F93AF93BF93EF935A
S1130230FF930E94AA020E94EA00FF91EF91BF91EE
S1130240AF919F918F917F916F915F914F913F916A
S11302502F910F900FBE0F901F90189561E084E0CE
S11302600E9481028AED90E00E946E0262E082E0C8
S11302700E94810288EE90E00E946E022FE38DE0DE
S113028093E0215080409040E1F700C000000E94BC
S1130290AA020E94EA0008950E94D80408951F93B8
S11302A0CF93DF93D82F162FC42F0E94D8040E9417
S11302B0DE04812F0E94E7048D2F0E94E7048C2F17
S11302C00E94E7040E94E40485EA9EE00197F1F7A6
S11302D000C00000DF91CF911F910895CF93DF9369
S11302E041E064E083E60E94370341E065E083E691
S11302F00E94370341E066E083E60E94370341E051
S113030067E083E60E94370360EF83E60E94BF0440
S1130310C4E0D0E00BC040E06C2F84E60E943703B9
S113032041E06C2F84E60E94C6032196C830D105B3
S113033094F360EF84E60E94BF04DF91CF910895A7
S11303400F931F93CF93DF931F92CDB7DEB781E056
S1130350898304E037C040E0602F83E60E94C6032F
S113036014E028C0AE014F5F5F4F612F84E60E9406
S11303705504898181111DC087E893E10197F1F744
S113038000C0000007C0AE014F5F5F4F612F84E6DD
S11303900E94550489818823B1F3E02FF0E0EE0F29
S11303A0FF1FEE0FFF1FE550FF4FE10FF11D80818E
S11303B00CC01F5F1830B0F241E0602F83E60E944A
S11303C0C6030F5F083038F287E30F90DF91CF91B7
S11303D01F910F9108958BB388608BBB86EA8A9531
S11303E0F1F700C08BB3877F8BBB86EA8A95F1F760
S11303F000C00895CF93C82F8BB38F709C2F907F2C
S1130400892B8BBB8BB38B7F8BBB8BB38D7F8BBBD0
S11304100E94EB012BB330E1C39FC0011124922F42
S11304209F70892B8BBB0E94EB01CF9108958AB3F7
S11304308E6F8ABB0E94EB0183EF91E00197F1F785
S113044000C0000083E30E94FA0191E29A95F1F75B
S1130450000082E30E94FA0181E28A95F1F700002C
S113046088E20E94FA0191E29A95F1F700008CE08B
S11304700E94FA0181E28A95F1F7000081E00E946E
S1130480FA0187E893E10197F1F700C0000086E0E4
S11304900E94FA0187EA91E60197F1F700C0000093
S11304A00895CF93C82F8BB38F709C2F907F892B87
S11304B08BBB8BB38B7F8BBB8BB382608BBB0E945C
S11304C0EB012BB330E1C39FC0011124922F9F7025
S11304D0892B8BBB0E94EB01CF9108950F931F933F
S11304E0CF938C01C0E003C00E945102CF5FF8019A
S11304F0EC0FF11D80818111F7CFCF911F910F91E6
S11305000895CF93DF9300D000D0CDB7DEB790E845
S1130510998390EC9A8394E99B8394ED9C83E62FD2
S1130520F0E0319721E030E02C0F3D1FE20FF31F84
S11305309081890F81500E94FA0189EF90E0019720
S1130540F1F700C000000F900F900F900F90DF9113
S1130550CF91089581E00E94FA0183EC99E001971C
S1130560F1F700C000000895CF92DF92EF92FF925E
S11305700F931F93CF93DF93CDB7DEB760970FB67A
S1130580F894DEBF0FBECDBF6B017C01672B682BD7
S1130590692B11F010E001C011E0A701960109C018
S11305A01F5FCA01B9012AE030E040E050E00E9438
S11305B00B06211531054105510591F71F3048F50A
S11305C000E01AC0C701B6012AE030E040E050E084
S11305D00E940B0669017A01802F90E00196E12FB9
S11305E0F0E0E81BF90B81E090E08C0F9D1FE80F11
S11305F0F91F605D60830F5F011720F3E1E0F0E015
S1130600EC0FFD1FE10FF11D1082CE0101960E9437
S11306106E0260960FB6F894DEBF0FBECDBFDF91B9
S1130620CF911F910F91FF90EF90DF90CF9008959D
S11306300E9449000E942E0180E090E008958AB350
S11306401ABA87B1806487B987B18F7787B986B1C1
S1130650816086B986B1826086B986B1846086B9C4
S113066087B18F7D87B986B1806886B9089582364F
S113067049F118F4813641F07FC0833609F440C053
S1130680843609F45BC078C0442319F0413071F01A
S113069075C02AB381E090E002C0880F991F6A9563
S11306A0E2F7809582238ABB80E008952AB381E033
S11306B090E002C0880F991F6A95E2F7822B8ABBEB
S11306C080E00895442319F0413071F059C027B3F4
S11306D081E090E002C0880F991F6A95E2F7809547
S11306E0822387BB80E0089527B381E090E002C0B5
S11306F0880F991F6A95E2F7822B87BB80E00895E3
S1130700442319F0413071F03DC024B381E090E0FE
S113071002C0880F991F6A95E2F78095822384BBF3
S113072080E0089524B381E090E002C0880F991F0F
S11307306A95E2F7822B84BB80E00895442319F084
S1130740413071F021C021B381E090E002C0880FF4
S1130750991F6A95E2F78095822381BB80E0089512
S113076021B381E090E002C0880F991F6A95E2F7F7
S1130770822B81BB80E008958FEF08958FEF089559
S11307808FEF08958FEF08958FEF0895823649F122
S113079018F4813641F07FC0833609F440C08436B2
S11307A009F45BC078C0442319F0413071F075C07E
S11307B02BB381E090E002C0880F991F6A95E2F79D
S11307C0809582238BBB80E008952BB381E090E079
S11307D002C0880F991F6A95E2F7822B8BBB80E0D9
S11307E00895442319F0413071F059C028B381E0D1
S11307F090E002C0880F991F6A95E2F780958223E2
S113080088BB80E0089528B381E090E002C0880F9F
S1130810991F6A95E2F7822B88BB80E008954423F0
S113082019F0413071F03DC025B381E090E002C081
S1130830880F991F6A95E2F78095822385BB80E033
S1130840089525B381E090E002C0880F991F6A954E
S1130850E2F7822B85BB80E00895442319F04130F0
S113086071F021C022B381E090E002C0880F991F8B
S11308706A95E2F78095822382BB80E0089522B3D3
S113088081E090E002C0880F991F6A95E2F7822BFD
S113089082BB80E008958FEF08958FEF08958FEF66
S11308A008958FEF08958FEF0895823609F118F4B3
S11308B0813639F062C0833691F1843609F446C03A
S11308C05CC079B381E090E09C01062E02C0220F47
S11308D0331F0A94E2F7872F90E08223932302C008
S11308E0959587956A95E2F7FA01808380E00895EB
S11308F076B381E090E09C01062E02C0220F331FE4
S11309000A94E2F7872F90E08223932302C09595FF
S113091087956A95E2F7FA01808380E0089573B3BE
S113092081E090E09C01062E02C0220F331F0A943E
S1130930E2F7872F90E08223932302C09595879551
S11309406A95E2F7FA01808380E0089570B381E04C
S113095090E09C01062E02C0220F331F0A94E2F796
S1130960872F90E08223932302C0959587956A95FB
S1130970E2F7FA01808380E008958FEF08958236CC
S113098061F018F4813631F011C0833649F08436B1
S113099051F00CC06BBB80E0089568BB80E0089503
S11309A065BB80E0089562BB80E008958FEF0895F1
S11309B011B88FE180B984E086BF089584EA86BFC8
S11309C006B607FEFDCF089584E986BF089583B96E
S11309D084E886BF06B607FEFDCF089578949BB7DA
S11309E090689BBF813051F028F0823059F08330F9
S11309F069F0089585B78C7F85BF089585B78160B8
S1130A0085BF089585B7826085BF089585B78360E3
S1130A1085BF089512BE813089F028F08230C9F074
S1130A20833039F135C083B78F7B83BF83B7877F2A
S1130A3083BF789489B7816089BF2AC083B78F7BCD
S1130A4083BF83B7886083BF789489B7826089BF86
S1130A501FC083B7806483BF83B7886083BF83B7B5
S1130A608F7E83BF83B7806283BF87B3886087BB71
S1130A700FC083B7806483BF83B7877F83BF83B787
S1130A808F7E83BF83B7806283BF87B3886087BB51
S1130A90623001F128F4662349F0613089F0089549
S1130AA0643061F108F1653099F1089583B78E7F60
S1130AB083BF83B78D7F83BF83B78B7F83BF089545
S1130AC083B7816083BF83B78D7F83BF83B78B7FF9
S1130AD083BF089583B78E7F83BF83B7826083BF4C
S1130AE083B78B7F83BF089583B7816083BF83B748
S1130AF0826083BF83B78B7F83BF089583B78E7F64
S1130B0083BF83B78D7F83BF83B7846083BF08951A
S1130B1083B7816083BF83B78D7F83BF83B78460CE
S1130B2083BF08951F920F920FB60F9211242F9333
S1130B303F934F935F936F937F938F939F93AF9361
S1130B40BF93EF93FF93E0910D01F0910E01309765
S1130B5009F00995FF91EF91BF91AF919F918F910A
S1130B607F916F915F914F913F912F910F900FBEA5
S1130B700F901F9018951F920F920FB60F92112489
S1130B802F933F934F935F936F937F938F939F9391
S1130B90AF93BF93EF93FF93E0910D01F0910E019A
S1130BA0309709F00995FF91EF91BF91AF919F9113
S1130BB08F917F916F915F914F913F912F910F9002
S1130BC00FBE0F901F901895BC0184E294EF0E9411
S1130BD0F7056150710970BD69B988E18AB986E881
S1130BE080BD08958AB180688AB978940895AA1B53
S1130BF0BB1B51E107C0AA1FBB1FA617B70710F004
S1130C00A61BB70B881F991F5A95A9F78095909535
S1130C10BC01CD010895A1E21A2EAA1BBB1BFD0144
S1130C200DC0AA1FBB1FEE1FFF1FA217B307E407C7
S1130C30F50720F0A21BB30BE40BF50B661F771F1F
S1130C40881F991F1A9469F76095709580959095FF
S1110C509B01AC01BD01CF010895F894FFCFC4
S1130C5E1428543D200020202043004C4F57004EB2
S1130C6E4F524D414C00484947480044414E474578
S1130C7E5200454E544552206D696E74656D700078
S1130C8E456E746572206D617874656D7000204DCB
S1130C9E41582054454D50203D00204D494E20547E
S1130CAE454D50203D00456E74657220757220636B
S1130CBE686F69636500312D74656D7020322D7314
S1130CCE657420332D73686F77004D61686D6F7591
S1130CDE642048616D6469004E54493E3E46696E17
S1130CEE616C2050726F6A656374003738392F3423
S10F0CFE35362A3132332D63303D2B0093
S9030000FC
